{
  "_format": "hh-sol-artifact-1",
  "contractName": "CarbonLedgerGoO",
  "sourceName": "contracts/CarbonLedgerGoO.sol",
  "abi": [
    {
      "inputs": [
        {
          "internalType": "string",
          "name": "baseURI",
          "type": "string"
        },
        {
          "internalType": "address",
          "name": "admin",
          "type": "address"
        },
        {
          "internalType": "address",
          "name": "initialIssuer",
          "type": "address"
        }
      ],
      "stateMutability": "nonpayable",
      "type": "constructor"
    },
    {
      "inputs": [],
      "name": "AccessControlBadConfirmation",
      "type": "error"
    },
    {
      "inputs": [
        {
          "internalType": "address",
          "name": "account",
          "type": "address"
        },
        {
          "internalType": "bytes32",
          "name": "neededRole",
          "type": "bytes32"
        }
      ],
      "name": "AccessControlUnauthorizedAccount",
      "type": "error"
    },
    {
      "inputs": [
        {
          "internalType": "address",
          "name": "sender",
          "type": "address"
        },
        {
          "internalType": "uint256",
          "name": "balance",
          "type": "uint256"
        },
        {
          "internalType": "uint256",
          "name": "needed",
          "type": "uint256"
        },
        {
          "internalType": "uint256",
          "name": "tokenId",
          "type": "uint256"
        }
      ],
      "name": "ERC1155InsufficientBalance",
      "type": "error"
    },
    {
      "inputs": [
        {
          "internalType": "address",
          "name": "approver",
          "type": "address"
        }
      ],
      "name": "ERC1155InvalidApprover",
      "type": "error"
    },
    {
      "inputs": [
        {
          "internalType": "uint256",
          "name": "idsLength",
          "type": "uint256"
        },
        {
          "internalType": "uint256",
          "name": "valuesLength",
          "type": "uint256"
        }
      ],
      "name": "ERC1155InvalidArrayLength",
      "type": "error"
    },
    {
      "inputs": [
        {
          "internalType": "address",
          "name": "operator",
          "type": "address"
        }
      ],
      "name": "ERC1155InvalidOperator",
      "type": "error"
    },
    {
      "inputs": [
        {
          "internalType": "address",
          "name": "receiver",
          "type": "address"
        }
      ],
      "name": "ERC1155InvalidReceiver",
      "type": "error"
    },
    {
      "inputs": [
        {
          "internalType": "address",
          "name": "sender",
          "type": "address"
        }
      ],
      "name": "ERC1155InvalidSender",
      "type": "error"
    },
    {
      "inputs": [
        {
          "internalType": "address",
          "name": "operator",
          "type": "address"
        },
        {
          "internalType": "address",
          "name": "owner",
          "type": "address"
        }
      ],
      "name": "ERC1155MissingApprovalForAll",
      "type": "error"
    },
    {
      "inputs": [],
      "name": "EnforcedPause",
      "type": "error"
    },
    {
      "inputs": [],
      "name": "ExpectedPause",
      "type": "error"
    },
    {
      "anonymous": false,
      "inputs": [
        {
          "indexed": true,
          "internalType": "address",
          "name": "account",
          "type": "address"
        },
        {
          "indexed": true,
          "internalType": "address",
          "name": "operator",
          "type": "address"
        },
        {
          "indexed": false,
          "internalType": "bool",
          "name": "approved",
          "type": "bool"
        }
      ],
      "name": "ApprovalForAll",
      "type": "event"
    },
    {
      "anonymous": false,
      "inputs": [
        {
          "indexed": false,
          "internalType": "address",
          "name": "account",
          "type": "address"
        }
      ],
      "name": "Paused",
      "type": "event"
    },
    {
      "anonymous": false,
      "inputs": [
        {
          "indexed": true,
          "internalType": "address",
          "name": "account",
          "type": "address"
        },
        {
          "indexed": true,
          "internalType": "uint256",
          "name": "id",
          "type": "uint256"
        },
        {
          "indexed": false,
          "internalType": "uint256",
          "name": "value",
          "type": "uint256"
        },
        {
          "indexed": false,
          "internalType": "string",
          "name": "reason",
          "type": "string"
        }
      ],
      "name": "Retired",
      "type": "event"
    },
    {
      "anonymous": false,
      "inputs": [
        {
          "indexed": true,
          "internalType": "uint256",
          "name": "id",
          "type": "uint256"
        },
        {
          "indexed": false,
          "internalType": "string",
          "name": "reason",
          "type": "string"
        }
      ],
      "name": "Revoked",
      "type": "event"
    },
    {
      "anonymous": false,
      "inputs": [
        {
          "indexed": true,
          "internalType": "bytes32",
          "name": "role",
          "type": "bytes32"
        },
        {
          "indexed": true,
          "internalType": "bytes32",
          "name": "previousAdminRole",
          "type": "bytes32"
        },
        {
          "indexed": true,
          "internalType": "bytes32",
          "name": "newAdminRole",
          "type": "bytes32"
        }
      ],
      "name": "RoleAdminChanged",
      "type": "event"
    },
    {
      "anonymous": false,
      "inputs": [
        {
          "indexed": true,
          "internalType": "bytes32",
          "name": "role",
          "type": "bytes32"
        },
        {
          "indexed": true,
          "internalType": "address",
          "name": "account",
          "type": "address"
        },
        {
          "indexed": true,
          "internalType": "address",
          "name": "sender",
          "type": "address"
        }
      ],
      "name": "RoleGranted",
      "type": "event"
    },
    {
      "anonymous": false,
      "inputs": [
        {
          "indexed": true,
          "internalType": "bytes32",
          "name": "role",
          "type": "bytes32"
        },
        {
          "indexed": true,
          "internalType": "address",
          "name": "account",
          "type": "address"
        },
        {
          "indexed": true,
          "internalType": "address",
          "name": "sender",
          "type": "address"
        }
      ],
      "name": "RoleRevoked",
      "type": "event"
    },
    {
      "anonymous": false,
      "inputs": [
        {
          "indexed": true,
          "internalType": "address",
          "name": "operator",
          "type": "address"
        },
        {
          "indexed": true,
          "internalType": "address",
          "name": "from",
          "type": "address"
        },
        {
          "indexed": true,
          "internalType": "address",
          "name": "to",
          "type": "address"
        },
        {
          "indexed": false,
          "internalType": "uint256[]",
          "name": "ids",
          "type": "uint256[]"
        },
        {
          "indexed": false,
          "internalType": "uint256[]",
          "name": "values",
          "type": "uint256[]"
        }
      ],
      "name": "TransferBatch",
      "type": "event"
    },
    {
      "anonymous": false,
      "inputs": [
        {
          "indexed": true,
          "internalType": "address",
          "name": "operator",
          "type": "address"
        },
        {
          "indexed": true,
          "internalType": "address",
          "name": "from",
          "type": "address"
        },
        {
          "indexed": true,
          "internalType": "address",
          "name": "to",
          "type": "address"
        },
        {
          "indexed": false,
          "internalType": "uint256",
          "name": "id",
          "type": "uint256"
        },
        {
          "indexed": false,
          "internalType": "uint256",
          "name": "value",
          "type": "uint256"
        }
      ],
      "name": "TransferSingle",
      "type": "event"
    },
    {
      "anonymous": false,
      "inputs": [
        {
          "indexed": false,
          "internalType": "string",
          "name": "value",
          "type": "string"
        },
        {
          "indexed": true,
          "internalType": "uint256",
          "name": "id",
          "type": "uint256"
        }
      ],
      "name": "URI",
      "type": "event"
    },
    {
      "anonymous": false,
      "inputs": [
        {
          "indexed": false,
          "internalType": "address",
          "name": "account",
          "type": "address"
        }
      ],
      "name": "Unpaused",
      "type": "event"
    },
    {
      "inputs": [],
      "name": "DEFAULT_ADMIN_ROLE",
      "outputs": [
        {
          "internalType": "bytes32",
          "name": "",
          "type": "bytes32"
        }
      ],
      "stateMutability": "view",
      "type": "function"
    },
    {
      "inputs": [],
      "name": "MAX_REASON_BYTES",
      "outputs": [
        {
          "internalType": "uint256",
          "name": "",
          "type": "uint256"
        }
      ],
      "stateMutability": "view",
      "type": "function"
    },
    {
      "inputs": [],
      "name": "ROLE_ADMIN",
      "outputs": [
        {
          "internalType": "bytes32",
          "name": "",
          "type": "bytes32"
        }
      ],
      "stateMutability": "view",
      "type": "function"
    },
    {
      "inputs": [],
      "name": "ROLE_ISSUER",
      "outputs": [
        {
          "internalType": "bytes32",
          "name": "",
          "type": "bytes32"
        }
      ],
      "stateMutability": "view",
      "type": "function"
    },
    {
      "inputs": [],
      "name": "ROLE_PAUSER",
      "outputs": [
        {
          "internalType": "bytes32",
          "name": "",
          "type": "bytes32"
        }
      ],
      "stateMutability": "view",
      "type": "function"
    },
    {
      "inputs": [
        {
          "internalType": "address",
          "name": "account",
          "type": "address"
        },
        {
          "internalType": "uint256",
          "name": "id",
          "type": "uint256"
        }
      ],
      "name": "balanceOf",
      "outputs": [
        {
          "internalType": "uint256",
          "name": "",
          "type": "uint256"
        }
      ],
      "stateMutability": "view",
      "type": "function"
    },
    {
      "inputs": [
        {
          "internalType": "address[]",
          "name": "accounts",
          "type": "address[]"
        },
        {
          "internalType": "uint256[]",
          "name": "ids",
          "type": "uint256[]"
        }
      ],
      "name": "balanceOfBatch",
      "outputs": [
        {
          "internalType": "uint256[]",
          "name": "",
          "type": "uint256[]"
        }
      ],
      "stateMutability": "view",
      "type": "function"
    },
    {
      "inputs": [
        {
          "internalType": "uint256",
          "name": "id",
          "type": "uint256"
        }
      ],
      "name": "exists",
      "outputs": [
        {
          "internalType": "bool",
          "name": "",
          "type": "bool"
        }
      ],
      "stateMutability": "view",
      "type": "function"
    },
    {
      "inputs": [
        {
          "internalType": "bytes32",
          "name": "role",
          "type": "bytes32"
        }
      ],
      "name": "getRoleAdmin",
      "outputs": [
        {
          "internalType": "bytes32",
          "name": "",
          "type": "bytes32"
        }
      ],
      "stateMutability": "view",
      "type": "function"
    },
    {
      "inputs": [
        {
          "internalType": "bytes32",
          "name": "role",
          "type": "bytes32"
        },
        {
          "internalType": "address",
          "name": "account",
          "type": "address"
        }
      ],
      "name": "grantRole",
      "outputs": [],
      "stateMutability": "nonpayable",
      "type": "function"
    },
    {
      "inputs": [
        {
          "internalType": "bytes32",
          "name": "role",
          "type": "bytes32"
        },
        {
          "internalType": "address",
          "name": "account",
          "type": "address"
        }
      ],
      "name": "hasRole",
      "outputs": [
        {
          "internalType": "bool",
          "name": "",
          "type": "bool"
        }
      ],
      "stateMutability": "view",
      "type": "function"
    },
    {
      "inputs": [
        {
          "internalType": "address",
          "name": "account",
          "type": "address"
        },
        {
          "internalType": "address",
          "name": "operator",
          "type": "address"
        }
      ],
      "name": "isApprovedForAll",
      "outputs": [
        {
          "internalType": "bool",
          "name": "",
          "type": "bool"
        }
      ],
      "stateMutability": "view",
      "type": "function"
    },
    {
      "inputs": [
        {
          "internalType": "address",
          "name": "to",
          "type": "address"
        },
        {
          "internalType": "uint256",
          "name": "id",
          "type": "uint256"
        },
        {
          "internalType": "uint256",
          "name": "value",
          "type": "uint256"
        },
        {
          "internalType": "bytes",
          "name": "data",
          "type": "bytes"
        }
      ],
      "name": "mint",
      "outputs": [],
      "stateMutability": "nonpayable",
      "type": "function"
    },
    {
      "inputs": [
        {
          "internalType": "address",
          "name": "to",
          "type": "address"
        },
        {
          "internalType": "uint256[]",
          "name": "ids",
          "type": "uint256[]"
        },
        {
          "internalType": "uint256[]",
          "name": "values",
          "type": "uint256[]"
        },
        {
          "internalType": "bytes",
          "name": "data",
          "type": "bytes"
        }
      ],
      "name": "mintBatch",
      "outputs": [],
      "stateMutability": "nonpayable",
      "type": "function"
    },
    {
      "inputs": [],
      "name": "pause",
      "outputs": [],
      "stateMutability": "nonpayable",
      "type": "function"
    },
    {
      "inputs": [],
      "name": "paused",
      "outputs": [
        {
          "internalType": "bool",
          "name": "",
          "type": "bool"
        }
      ],
      "stateMutability": "view",
      "type": "function"
    },
    {
      "inputs": [
        {
          "internalType": "bytes32",
          "name": "role",
          "type": "bytes32"
        },
        {
          "internalType": "address",
          "name": "callerConfirmation",
          "type": "address"
        }
      ],
      "name": "renounceRole",
      "outputs": [],
      "stateMutability": "nonpayable",
      "type": "function"
    },
    {
      "inputs": [
        {
          "internalType": "uint256",
          "name": "id",
          "type": "uint256"
        },
        {
          "internalType": "uint256",
          "name": "value",
          "type": "uint256"
        },
        {
          "internalType": "string",
          "name": "reason",
          "type": "string"
        }
      ],
      "name": "retire",
      "outputs": [],
      "stateMutability": "nonpayable",
      "type": "function"
    },
    {
      "inputs": [
        {
          "internalType": "uint256[]",
          "name": "ids",
          "type": "uint256[]"
        },
        {
          "internalType": "uint256[]",
          "name": "values",
          "type": "uint256[]"
        },
        {
          "internalType": "string",
          "name": "reason",
          "type": "string"
        }
      ],
      "name": "retireBatch",
      "outputs": [],
      "stateMutability": "nonpayable",
      "type": "function"
    },
    {
      "inputs": [
        {
          "internalType": "bytes32",
          "name": "role",
          "type": "bytes32"
        },
        {
          "internalType": "address",
          "name": "account",
          "type": "address"
        }
      ],
      "name": "revokeRole",
      "outputs": [],
      "stateMutability": "nonpayable",
      "type": "function"
    },
    {
      "inputs": [
        {
          "internalType": "uint256",
          "name": "",
          "type": "uint256"
        }
      ],
      "name": "revoked",
      "outputs": [
        {
          "internalType": "bool",
          "name": "",
          "type": "bool"
        }
      ],
      "stateMutability": "view",
      "type": "function"
    },
    {
      "inputs": [
        {
          "internalType": "address",
          "name": "from",
          "type": "address"
        },
        {
          "internalType": "address",
          "name": "to",
          "type": "address"
        },
        {
          "internalType": "uint256[]",
          "name": "ids",
          "type": "uint256[]"
        },
        {
          "internalType": "uint256[]",
          "name": "values",
          "type": "uint256[]"
        },
        {
          "internalType": "bytes",
          "name": "data",
          "type": "bytes"
        }
      ],
      "name": "safeBatchTransferFrom",
      "outputs": [],
      "stateMutability": "nonpayable",
      "type": "function"
    },
    {
      "inputs": [
        {
          "internalType": "address",
          "name": "from",
          "type": "address"
        },
        {
          "internalType": "address",
          "name": "to",
          "type": "address"
        },
        {
          "internalType": "uint256",
          "name": "id",
          "type": "uint256"
        },
        {
          "internalType": "uint256",
          "name": "value",
          "type": "uint256"
        },
        {
          "internalType": "bytes",
          "name": "data",
          "type": "bytes"
        }
      ],
      "name": "safeTransferFrom",
      "outputs": [],
      "stateMutability": "nonpayable",
      "type": "function"
    },
    {
      "inputs": [
        {
          "internalType": "address",
          "name": "operator",
          "type": "address"
        },
        {
          "internalType": "bool",
          "name": "approved",
          "type": "bool"
        }
      ],
      "name": "setApprovalForAll",
      "outputs": [],
      "stateMutability": "nonpayable",
      "type": "function"
    },
    {
      "inputs": [
        {
          "internalType": "uint256",
          "name": "id",
          "type": "uint256"
        },
        {
          "internalType": "bool",
          "name": "status",
          "type": "bool"
        },
        {
          "internalType": "string",
          "name": "reason",
          "type": "string"
        }
      ],
      "name": "setRevoked",
      "outputs": [],
      "stateMutability": "nonpayable",
      "type": "function"
    },
    {
      "inputs": [
        {
          "internalType": "string",
          "name": "newuri",
          "type": "string"
        }
      ],
      "name": "setURI",
      "outputs": [],
      "stateMutability": "nonpayable",
      "type": "function"
    },
    {
      "inputs": [
        {
          "internalType": "bytes4",
          "name": "interfaceId",
          "type": "bytes4"
        }
      ],
      "name": "supportsInterface",
      "outputs": [
        {
          "internalType": "bool",
          "name": "",
          "type": "bool"
        }
      ],
      "stateMutability": "view",
      "type": "function"
    },
    {
      "inputs": [],
      "name": "totalSupply",
      "outputs": [
        {
          "internalType": "uint256",
          "name": "",
          "type": "uint256"
        }
      ],
      "stateMutability": "view",
      "type": "function"
    },
    {
      "inputs": [
        {
          "internalType": "uint256",
          "name": "id",
          "type": "uint256"
        }
      ],
      "name": "totalSupply",
      "outputs": [
        {
          "internalType": "uint256",
          "name": "",
          "type": "uint256"
        }
      ],
      "stateMutability": "view",
      "type": "function"
    },
    {
      "inputs": [],
      "name": "unpause",
      "outputs": [],
      "stateMutability": "nonpayable",
      "type": "function"
    },
    {
      "inputs": [
        {
          "internalType": "uint256",
          "name": "",
          "type": "uint256"
        }
      ],
      "name": "uri",
      "outputs": [
        {
          "internalType": "string",
          "name": "",
          "type": "string"
        }
      ],
      "stateMutability": "view",
      "type": "function"
    }
  ],
  "bytecode": "0x60806040523480156200001157600080fd5b5060405162002816380380620028168339810160408190526200003491620001bb565b826200004081620000c3565b506200004e600083620000d5565b506200007b7f372d55e37651a7c6e1940a3fb8628e4b6122a3c1a8b2b70aee13e0722860456783620000d5565b506001600160a01b03811615620000ba57620000b87fb5f4ba1c5fe0704bb1c4399e6baa562444b507b8daf8d7c95ffa2d49b06b442c82620000d5565b505b50505062000410565b6002620000d1828262000344565b5050565b60008281526005602090815260408083206001600160a01b038516845290915281205460ff166200017e5760008381526005602090815260408083206001600160a01b03861684529091529020805460ff19166001179055620001353390565b6001600160a01b0316826001600160a01b0316847f2f8788117e7eff1d82e926ec794901d17c78024a50270940304540a733656f0d60405160405180910390a450600162000182565b5060005b92915050565b634e487b7160e01b600052604160045260246000fd5b80516001600160a01b0381168114620001b657600080fd5b919050565b600080600060608486031215620001d157600080fd5b83516001600160401b0380821115620001e957600080fd5b818601915086601f830112620001fe57600080fd5b81518181111562000213576200021362000188565b604051601f8201601f19908116603f011681019083821181831017156200023e576200023e62000188565b816040528281526020935089848487010111156200025b57600080fd5b600091505b828210156200027f578482018401518183018501529083019062000260565b60008484830101528097505050506200029a8187016200019e565b93505050620002ac604085016200019e565b90509250925092565b600181811c90821680620002ca57607f821691505b602082108103620002eb57634e487b7160e01b600052602260045260246000fd5b50919050565b601f8211156200033f57600081815260208120601f850160051c810160208610156200031a5750805b601f850160051c820191505b818110156200033b5782815560010162000326565b5050505b505050565b81516001600160401b0381111562000360576200036062000188565b6200037881620003718454620002b5565b84620002f1565b602080601f831160018114620003b05760008415620003975750858301515b600019600386901b1c1916600185901b1785556200033b565b600085815260208120601f198616915b82811015620003e157888601518255948401946001909101908401620003c0565b5085821015620004005787850151600019600388901b60f8161c191681555b5050505050600190811b01905550565b6123f680620004206000396000f3fe608060405234801561001057600080fd5b50600436106101e45760003560e01c8063731133e91161010f578063b047eb02116100a2578063d5b141e711610071578063d5b141e71461042c578063e985e9c51461044f578063f242432a14610462578063f4788ec11461047557600080fd5b8063b047eb02146103d2578063bd85b039146103f9578063d391014b146103b7578063d547741f1461041957600080fd5b80638d34c7e5116100de5780638d34c7e51461039157806391d14854146103a4578063a217fddf146103b7578063a22cb465146103bf57600080fd5b8063731133e91461033c57806374d1eb1f1461034f578063794d3850146103625780638456cb591461038957600080fd5b80632eb2c2d6116101875780633f4ba83a116101565780633f4ba83a146102e75780634e1273f4146102ef5780634f558e791461030f5780635c975abb1461033157600080fd5b80632eb2c2d6146102a55780632f2ff15d146102b857806336568abe146102cb5780633cefc404146102de57600080fd5b80630e89341c116101c35780630e89341c1461024757806318160ddd146102675780631f7fdffa1461026f578063248a9ca31461028257600080fd5b8062fdd58e146101e957806301ffc9a71461020f57806302fe530514610232575b600080fd5b6101fc6101f7366004611900565b610488565b6040519081526020015b60405180910390f35b61022261021d366004611940565b6104b0565b6040519015158152602001610206565b610245610240366004611a01565b6104bb565b005b61025a610255366004611a51565b6104d3565b6040516102069190611ab0565b6004546101fc565b61024561027d366004611b4f565b610567565b6101fc610290366004611a51565b60009081526005602052604090206001015490565b6102456102b3366004611ca7565b61063d565b6102456102c6366004611d50565b6106a9565b6102456102d9366004611d50565b6106d4565b6101fc61010081565b61024561070c565b6103026102fd366004611d7c565b610741565b6040516102069190611e76565b61022261031d366004611a51565b600090815260036020526040902054151590565b60065460ff16610222565b61024561034a366004611e89565b610815565b61024561035d366004611ef0565b610881565b6101fc7fb5f4ba1c5fe0704bb1c4399e6baa562444b507b8daf8d7c95ffa2d49b06b442c81565b610245610a3f565b61024561039f366004611f99565b610a71565b6102226103b2366004611d50565b610ae1565b6101fc600081565b6102456103cd366004611ff2565b610b0c565b6101fc7f372d55e37651a7c6e1940a3fb8628e4b6122a3c1a8b2b70aee13e0722860456781565b6101fc610407366004611a51565b60009081526003602052604090205490565b610245610427366004611d50565b610b17565b61022261043a366004611a51565b60076020526000908152604090205460ff1681565b61022261045d36600461201c565b610b3c565b610245610470366004612046565b610b6a565b6102456104833660046120aa565b610bc9565b6000818152602081815260408083206001600160a01b03861684529091529020545b92915050565b60006104aa82610d2e565b60006104c681610d53565b6104cf82610d5d565b5050565b6060600280546104e2906120e4565b80601f016020809104026020016040519081016040528092919081815260200182805461050e906120e4565b801561055b5780601f106105305761010080835404028352916020019161055b565b820191906000526020600020905b81548152906001019060200180831161053e57829003601f168201915b50505050509050919050565b7fb5f4ba1c5fe0704bb1c4399e6baa562444b507b8daf8d7c95ffa2d49b06b442c61059181610d53565b6106338888888080602002602001604051908101604052809392919081815260200183836020028082843760009201919091525050604080516020808c0282810182019093528b82529093508b92508a91829185019084908082843760009201919091525050604080516020601f8b018190048102820181019092528981529250899150889081908401838280828437600092019190915250610d6992505050565b5050505050505050565b336001600160a01b038616811480159061065e575061065c8682610b3c565b155b156106945760405163711bec9160e11b81526001600160a01b038083166004830152871660248201526044015b60405180910390fd5b6106a18686868686610da1565b505050505050565b6000828152600560205260409020600101546106c481610d53565b6106ce8383610e01565b50505050565b6001600160a01b03811633146106fd5760405163334bd91960e11b815260040160405180910390fd5b6107078282610e95565b505050565b7f372d55e37651a7c6e1940a3fb8628e4b6122a3c1a8b2b70aee13e0722860456761073681610d53565b61073e610f02565b50565b606081518351146107725781518351604051635b05999160e01b81526004810192909252602482015260440161068b565b600083516001600160401b0381111561078d5761078d611964565b6040519080825280602002602001820160405280156107b6578160200160208202803683370190505b50905060005b845181101561080d576020808202860101516107e090602080840287010151610488565b8282815181106107f2576107f261211e565b60209081029190910101526108068161214a565b90506107bc565b509392505050565b7fb5f4ba1c5fe0704bb1c4399e6baa562444b507b8daf8d7c95ffa2d49b06b442c61083f81610d53565b6106a186868686868080601f016020809104026020016040519081016040528093929190818152602001838380828437600092019190915250610f5492505050565b600082828080601f01602080910402602001604051908101604052809392919081815260200183838082843760009201919091525050825192935050506108f95760405162461bcd60e51b815260206004820152600c60248201526b726561736f6e20656d70747960a01b604482015260640161068b565b6101008151111561093e5760405162461bcd60e51b815260206004820152600f60248201526e726561736f6e20746f6f206c6f6e6760881b604482015260640161068b565b6109ac3388888080602002602001604051908101604052809392919081815260200183836020028082843760009201919091525050604080516020808c0282810182019093528b82529093508b92508a918291850190849080828437600092019190915250610fb192505050565b60005b86811015610633578787828181106109c9576109c961211e565b90506020020135336001600160a01b03167ffcf16444941f8c5f0c35215d4dd2254d707c517c39402496d88fe1e27595b778888885818110610a0d57610a0d61211e565b905060200201358787604051610a259392919061218c565b60405180910390a380610a378161214a565b9150506109af565b7f372d55e37651a7c6e1940a3fb8628e4b6122a3c1a8b2b70aee13e07228604567610a6981610d53565b61073e610ff7565b6000610a7c81610d53565b6000858152600760205260409020805460ff19168515801591909117909155610ada57847f09e41d39f5fbe80f71bc2f0a44e937a0ee3dff62dd07f191a8a461a339891a038484604051610ad19291906121af565b60405180910390a25b5050505050565b60009182526005602090815260408084206001600160a01b0393909316845291905290205460ff1690565b6104cf338383611034565b600082815260056020526040902060010154610b3281610d53565b6106ce8383610e95565b6001600160a01b03918216600090815260016020908152604080832093909416825291909152205460ff1690565b336001600160a01b0386168114801590610b8b5750610b898682610b3c565b155b15610bbc5760405163711bec9160e11b81526001600160a01b0380831660048301528716602482015260440161068b565b6106a186868686866110ca565b600082828080601f0160208091040260200160405190810160405280939291908181526020018383808284376000920191909152505082519293505050610c415760405162461bcd60e51b815260206004820152600c60248201526b726561736f6e20656d70747960a01b604482015260640161068b565b61010081511115610c865760405162461bcd60e51b815260206004820152600f60248201526e726561736f6e20746f6f206c6f6e6760881b604482015260640161068b565b83610c913387610488565b1015610cd65760405162461bcd60e51b8152602060048201526014602482015273696e73756666696369656e742062616c616e636560601b604482015260640161068b565b610ce1338686611158565b84336001600160a01b03167ffcf16444941f8c5f0c35215d4dd2254d707c517c39402496d88fe1e27595b778868686604051610d1f9392919061218c565b60405180910390a35050505050565b60006001600160e01b03198216637965db0b60e01b14806104aa57506104aa826111c0565b61073e8133611210565b60026104cf8282612209565b6001600160a01b038416610d9357604051632bfa23e760e11b81526000600482015260240161068b565b6106ce600085858585611249565b6001600160a01b038416610dcb57604051632bfa23e760e11b81526000600482015260240161068b565b6001600160a01b038516610df457604051626a0d4560e21b81526000600482015260240161068b565b610ada8585858585611249565b6000610e0d8383610ae1565b610e8d5760008381526005602090815260408083206001600160a01b03861684529091529020805460ff19166001179055610e453390565b6001600160a01b0316826001600160a01b0316847f2f8788117e7eff1d82e926ec794901d17c78024a50270940304540a733656f0d60405160405180910390a45060016104aa565b5060006104aa565b6000610ea18383610ae1565b15610e8d5760008381526005602090815260408083206001600160a01b0386168085529252808320805460ff1916905551339286917ff6391f5c32d9c69d2a47ea670b442974b53935d1edc7fd64eb21e047a839171b9190a45060016104aa565b610f0a61129c565b6006805460ff191690557f5db9ee0a495bf2e6ff9c91a7834c1ba4fdd244a5e8aa4e537bd38aeae4b073aa335b6040516001600160a01b03909116815260200160405180910390a1565b6001600160a01b038416610f7e57604051632bfa23e760e11b81526000600482015260240161068b565b604080516001808252602082018690528183019081526060820185905260808201909252906106a1600087848487611249565b6001600160a01b038316610fda57604051626a0d4560e21b81526000600482015260240161068b565b610707836000848460405180602001604052806000815250611249565b610fff6112c1565b6006805460ff191660011790557f62e78cea01bee320cd4e420270b5ea74000d11b0c9f74754ebdbfc544b05a258610f373390565b6001600160a01b03821661105d5760405162ced3e160e81b81526000600482015260240161068b565b6001600160a01b03838116600081815260016020908152604080832094871680845294825291829020805460ff191686151590811790915591519182527f17307eab39ab6107e8899845ad3d59bd9653f200f220920489ca2b5937696c31910160405180910390a3505050565b6001600160a01b0384166110f457604051632bfa23e760e11b81526000600482015260240161068b565b6001600160a01b03851661111d57604051626a0d4560e21b81526000600482015260240161068b565b6040805160018082526020820186905281830190815260608201859052608082019092529061114f8787848487611249565b50505050505050565b6001600160a01b03831661118157604051626a0d4560e21b81526000600482015260240161068b565b604080516001808252602082018590528183019081526060820184905260a08201909252600060808201818152919291610ada91879185908590611249565b60006001600160e01b03198216636cdb3d1360e11b14806111f157506001600160e01b031982166303a24d0760e21b145b806104aa57506301ffc9a760e01b6001600160e01b03198316146104aa565b61121a8282610ae1565b6104cf5760405163e2517d3f60e01b81526001600160a01b03821660048201526024810183905260440161068b565b611255858585856112e5565b6001600160a01b03841615610ada578251339060010361128e57602084810151908401516112878389898585896113bd565b50506106a1565b6106a18187878787876114e1565b60065460ff166112bf57604051638dfc202b60e01b815260040160405180910390fd5b565b60065460ff16156112bf5760405163d93c066560e01b815260040160405180910390fd5b60065460ff16156113215760405162461bcd60e51b81526020600482015260066024820152651c185d5cd95960d21b604482015260640161068b565b60005b82518110156113b057600760008483815181106113435761134361211e565b60209081029190910181015182528101919091526040016000205460ff161561139e5760405162461bcd60e51b815260206004820152600d60248201526c1d1bdad95b881c995d9bdad959609a1b604482015260640161068b565b806113a88161214a565b915050611324565b506106ce848484846115ca565b6001600160a01b0384163b156106a15760405163f23a6e6160e01b81526001600160a01b0385169063f23a6e619061140190899089908890889088906004016122c8565b6020604051808303816000875af192505050801561143c575060408051601f3d908101601f191682019092526114399181019061230d565b60015b6114a5573d80801561146a576040519150601f19603f3d011682016040523d82523d6000602084013e61146f565b606091505b50805160000361149d57604051632bfa23e760e11b81526001600160a01b038616600482015260240161068b565b805160208201fd5b6001600160e01b0319811663f23a6e6160e01b1461114f57604051632bfa23e760e11b81526001600160a01b038616600482015260240161068b565b6001600160a01b0384163b156106a15760405163bc197c8160e01b81526001600160a01b0385169063bc197c8190611525908990899088908890889060040161232a565b6020604051808303816000875af1925050508015611560575060408051601f3d908101601f1916820190925261155d9181019061230d565b60015b61158e573d80801561146a576040519150601f19603f3d011682016040523d82523d6000602084013e61146f565b6001600160e01b0319811663bc197c8160e01b1461114f57604051632bfa23e760e11b81526001600160a01b038616600482015260240161068b565b6115d6848484846116c7565b6001600160a01b03841661165f576000805b83518110156116455760208181028481018201519086018201516000908152600390925260408220805491928392611621908490612388565b9091555061163190508184612388565b9250508061163e9061214a565b90506115e8565b5080600460008282546116589190612388565b9091555050505b6001600160a01b0383166106ce576000805b83518110156116b65760208181028481018201519086018201516000908152600390925260409091208054829003905591909101906116af8161214a565b9050611671565b506004805491909103905550505050565b80518251146116f65781518151604051635b05999160e01b81526004810192909252602482015260440161068b565b3360005b8351811015611805576020818102858101820151908501909101516001600160a01b038816156117ad576000828152602081815260408083206001600160a01b038c16845290915290205481811015611786576040516303dee4c560e01b81526001600160a01b038a16600482015260248101829052604481018390526064810184905260840161068b565b6000838152602081815260408083206001600160a01b038d16845290915290209082900390555b6001600160a01b038716156117f2576000828152602081815260408083206001600160a01b038b168452909152812080548392906117ec908490612388565b90915550505b5050806117fe9061214a565b90506116fa565b5082516001036118865760208301516000906020840151909150856001600160a01b0316876001600160a01b0316846001600160a01b03167fc3d58168c5ae7397731d063d5bbf3d657854427343f4c083240f7aacaa2d0f628585604051611877929190918252602082015260400190565b60405180910390a45050610ada565b836001600160a01b0316856001600160a01b0316826001600160a01b03167f4a39dc06d4c0dbc64b70af90fd698a233a518aa5d07e595d983b8c0526c8f7fb86866040516118d592919061239b565b60405180910390a45050505050565b80356001600160a01b03811681146118fb57600080fd5b919050565b6000806040838503121561191357600080fd5b61191c836118e4565b946020939093013593505050565b6001600160e01b03198116811461073e57600080fd5b60006020828403121561195257600080fd5b813561195d8161192a565b9392505050565b634e487b7160e01b600052604160045260246000fd5b604051601f8201601f191681016001600160401b03811182821017156119a2576119a2611964565b604052919050565b60006001600160401b038311156119c3576119c3611964565b6119d6601f8401601f191660200161197a565b90508281528383830111156119ea57600080fd5b828260208301376000602084830101529392505050565b600060208284031215611a1357600080fd5b81356001600160401b03811115611a2957600080fd5b8201601f81018413611a3a57600080fd5b611a49848235602084016119aa565b949350505050565b600060208284031215611a6357600080fd5b5035919050565b6000815180845260005b81811015611a9057602081850181015186830182015201611a74565b506000602082860101526020601f19601f83011685010191505092915050565b60208152600061195d6020830184611a6a565b60008083601f840112611ad557600080fd5b5081356001600160401b03811115611aec57600080fd5b6020830191508360208260051b8501011115611b0757600080fd5b9250929050565b60008083601f840112611b2057600080fd5b5081356001600160401b03811115611b3757600080fd5b602083019150836020828501011115611b0757600080fd5b60008060008060008060006080888a031215611b6a57600080fd5b611b73886118e4565b965060208801356001600160401b0380821115611b8f57600080fd5b611b9b8b838c01611ac3565b909850965060408a0135915080821115611bb457600080fd5b611bc08b838c01611ac3565b909650945060608a0135915080821115611bd957600080fd5b50611be68a828b01611b0e565b989b979a50959850939692959293505050565b60006001600160401b03821115611c1257611c12611964565b5060051b60200190565b600082601f830112611c2d57600080fd5b81356020611c42611c3d83611bf9565b61197a565b82815260059290921b84018101918181019086841115611c6157600080fd5b8286015b84811015611c7c5780358352918301918301611c65565b509695505050505050565b600082601f830112611c9857600080fd5b61195d838335602085016119aa565b600080600080600060a08688031215611cbf57600080fd5b611cc8866118e4565b9450611cd6602087016118e4565b935060408601356001600160401b0380821115611cf257600080fd5b611cfe89838a01611c1c565b94506060880135915080821115611d1457600080fd5b611d2089838a01611c1c565b93506080880135915080821115611d3657600080fd5b50611d4388828901611c87565b9150509295509295909350565b60008060408385031215611d6357600080fd5b82359150611d73602084016118e4565b90509250929050565b60008060408385031215611d8f57600080fd5b82356001600160401b0380821115611da657600080fd5b818501915085601f830112611dba57600080fd5b81356020611dca611c3d83611bf9565b82815260059290921b84018101918181019089841115611de957600080fd5b948201945b83861015611e0e57611dff866118e4565b82529482019490820190611dee565b96505086013592505080821115611e2457600080fd5b50611e3185828601611c1c565b9150509250929050565b600081518084526020808501945080840160005b83811015611e6b57815187529582019590820190600101611e4f565b509495945050505050565b60208152600061195d6020830184611e3b565b600080600080600060808688031215611ea157600080fd5b611eaa866118e4565b9450602086013593506040860135925060608601356001600160401b03811115611ed357600080fd5b611edf88828901611b0e565b969995985093965092949392505050565b60008060008060008060608789031215611f0957600080fd5b86356001600160401b0380821115611f2057600080fd5b611f2c8a838b01611ac3565b90985096506020890135915080821115611f4557600080fd5b611f518a838b01611ac3565b90965094506040890135915080821115611f6a57600080fd5b50611f7789828a01611b0e565b979a9699509497509295939492505050565b803580151581146118fb57600080fd5b60008060008060608587031215611faf57600080fd5b84359350611fbf60208601611f89565b925060408501356001600160401b03811115611fda57600080fd5b611fe687828801611b0e565b95989497509550505050565b6000806040838503121561200557600080fd5b61200e836118e4565b9150611d7360208401611f89565b6000806040838503121561202f57600080fd5b612038836118e4565b9150611d73602084016118e4565b600080600080600060a0868803121561205e57600080fd5b612067866118e4565b9450612075602087016118e4565b9350604086013592506060860135915060808601356001600160401b0381111561209e57600080fd5b611d4388828901611c87565b600080600080606085870312156120c057600080fd5b843593506020850135925060408501356001600160401b03811115611fda57600080fd5b600181811c908216806120f857607f821691505b60208210810361211857634e487b7160e01b600052602260045260246000fd5b50919050565b634e487b7160e01b600052603260045260246000fd5b634e487b7160e01b600052601160045260246000fd5b60006001820161215c5761215c612134565b5060010190565b81835281816020850137506000828201602090810191909152601f909101601f19169091010190565b8381526040602082015260006121a6604083018486612163565b95945050505050565b602081526000611a49602083018486612163565b601f82111561070757600081815260208120601f850160051c810160208610156121ea5750805b601f850160051c820191505b818110156106a1578281556001016121f6565b81516001600160401b0381111561222257612222611964565b6122368161223084546120e4565b846121c3565b602080601f83116001811461226b57600084156122535750858301515b600019600386901b1c1916600185901b1785556106a1565b600085815260208120601f198616915b8281101561229a5788860151825594840194600190910190840161227b565b50858210156122b85787850151600019600388901b60f8161c191681555b5050505050600190811b01905550565b6001600160a01b03868116825285166020820152604081018490526060810183905260a06080820181905260009061230290830184611a6a565b979650505050505050565b60006020828403121561231f57600080fd5b815161195d8161192a565b6001600160a01b0386811682528516602082015260a06040820181905260009061235690830186611e3b565b82810360608401526123688186611e3b565b9050828103608084015261237c8185611a6a565b98975050505050505050565b808201808211156104aa576104aa612134565b6040815260006123ae6040830185611e3b565b82810360208401526121a68185611e3b56fea264697066735822122003f571189b6f26b7759ca6eeeefbf3adde523712d34a91db5a815be15a8913f464736f6c63430008140033",
  "linkReferences": {},
  "deployedLinkReferences": {}
}